:100000000C9434000C943E000C943E000C943E0082
:100010000C943E000C943E000C943E000C943E0068
:100020000C943E000C943E000C943E000C943E0058
:100030000C943E000C943E000C943E000C943E0048
:100040000C943E000C943E000C943E000C943E0038
:100050000C943E000C943E000C943E000C943E0028
:100060000C943E000C943E0011241FBECFEFD8E04C
:10007000DEBFCDBF0E9440000C946F000C940000C6
:10008000CF93DF93CDB7DEB784E290E0FC0120810F
:1000900084E290E02260FC01208380E890E0FC0193
:1000A000108281E890E0FC01108288E890E026E26E
:1000B0003FE7FC013183208381E890E0FC0120814F
:1000C00081E890E02761FC01208380E890E0FC015A
:1000D000208180E890E02064FC012083FFCFF89429
:0200E000FFCF50
:00000001FF
